S00600004C494222
S2140000009000DE10DE10DE10DE10DE10DE10DE10D9
S214000010DE10DE10DE10CA1606154311060EDE10C0
S21400002000112E11DE1088156D17DE10DE10DE10A2
S2140000304016DE10DE10DE10E6101511BFBFDE1013
S21400004045020101F2091F0621012F0691025A01FD
S214000050C7043A0A6A0A590B2309F8047901480AC0
S21400006035092B055909B0099D40BFBFBFBFBFBFAB
S214000070BFBFBFBFBFBFBFBFBFBFBFBFBFBFBFBF8B
S2090000807B00000000FB
S2140000907B1E13F300EE1C20FEA40016E5009A1F3C
S2140000A0066168AD301624FEA38A617197868BFCC4
S2140000B0166681128F00626161AD01431400FB87F2
S2140000C09586848AFA8BF816F581A3031420FE879A
S2140000D09586848BFAA40016B70E9A1F06A40016FF
S2140000E0FE009A1F06100100AF1600E8126B0762AA
S2140000F06161AD0343617197868AFC8BFABF00FA93
S214000100FDB330417251308A044D00B2AF6101FA3E
S214000110F6B330417251308A044D00B2AF2125FA51
S214000120F6B3428A05EA0000B2AF2130273027FA3C
S214000130F2B3428A05EA0000B2AF2125302530FA34
S214000140F2B3A300317F02A380428A05EA0000B220
S214000150AF2125302530616BFAF0B7B3B6D27066A2
S21400016031886073C267318863610873C2663188FC
S214000170610BEA0000B7B2B6AFB3B59AA8019ACB46
S214000180013527359D09D2A10070611A30613BB454
S214000190EA0000B2AFB1B3E27D80E27D8030611A42
S2140001A030613B6168B2B0AF75617B3574317F0BEF
S2140001B0B3D2A10070611A30613BB2B163317F09DE
S2140001C0A10070611A30613BD2B0AFB1636163B019
S2140001D0BD053182A300AFB5B3B43073A100A20849
S2140001E03327333027302730611C30613D9D063081
S2140001F0610C30612D8AE9332733323032337DFF8C
S21400020030B4AFB544E2E4E28A0DD26168616D6154
S2140002106CC2E4E2E4B4AF2130273027342734350B
S2140002202735FAE4B544E2E4E28A0DD26168616DEE
S214000230616CC2E4E2E4B4AFE42125302530E42565
S214000240302530FAE4B5B7D4100000B1B1891CD619
S214000250C2A220DE0D25DE0DDE0C25DE0CDE0B2513
S214000260DE0BDE0A25DE0A9D1707610C07DE01613C
S2140002702DDE01DE026128DE02DE032903DE032115
S214000280342734352735302730278AC7B2B49BD673
S21400029005B5E2E4B79A18039A28039BD605B5E29B
S2140002A0E4B79A18039A9603E4E6E29BD605B5E20D
S2140002B0E4B7891CD63269063233690733346908D5
S2140002C034356909759BD605B5E2E4B7891CD63284
S2140002D05906323359073334590834355909759B52
S2140002E0D605B5E2E4B7891CD662190670633907ED
S2140002F06160643908616065390961609BFE05B517
S214000300307DFF307DFFD4C2307DFF307DFFD2616F
S21400031068616D616CC4B4AF891CD6AE0830AE0996
S214000320B1AE0A70AE0BB6AFB1B7B5B3891CD6AED8
S21400033004690569066907BD0A120000140000B6C4
S214000340B6FA50A220100000D407610107DE01278C
S214000350DE01DE0227DE02DE0327DE033427343525
S2140003602735302730274907BD04304906308D1F12
S214000370BD0C35490535BD04344904348D11341996
S2140003800434353905353039063039070741078AD0
S214000390B8B2B4B6B6AFB1B7B5B3891CD6AE0469B9
S2140003A00569066907BD06100000D4FA4CA22010A5
S2140003B00000D4072707DE0127DE01DE0227DE0263
S2140003C0DE0327DE03342734352735302730274928
S2140003D007BD04304906308D1CBD0C35490535BDBA
S2140003E004344904348D0E34190434353905353057
S2140003F039063039078ABCB5B6B2B2B2B2AFB7B5B5
S214000400B36072891CD6AE0670AE07D480BE076095
S214000410BE068522E6CA080023E673AB70616160FB
S214000420323032B2B4B6AFB7B5B3D2891CD6AE0648
S21400043070AE07D480BE0760BE068522E6CA0800F6
S21400044023E633BB323032B2B4B6AFB7B5B3891C8D
S214000450D6AE0670AE07D480BE0760BE068522E61E
S214000460CA0800E673AB704323ABB16168B0B2B4A0
S214000470B6AFB7B5B3D2891CD6AE0670AE07D48079
S214000480BE0760BE068522E6CA0800E6E230BB4329
S2140004902330BBB2B4B6AFB7B5891CD6AE0470AEC7
S2140004A005D480BE0560BE048522E6CA0600E67353
S2140004B0AB7043ABD443AB704323ABD2C46168612B
S2140004C06B616AC4B4B6AFB1B3B5B7891CD6B7AE64
S2140004D00870AE09D68774AE01758686C6B6BE09A4
S2140004E060BE08C630611C30613D991CD4120A00FB
S2140004F09A6905B6B4B2B0AFB1B3B5B7891CD6B772
S214000500AE0870AE09D68774AE01758686C6B6BECE
S2140005100960BE0822C630610C30612DD423120A51
S214000520009A6905991CB6B4B2B0AFB1B3B5B78935
S2140005301CD6AE0870AE09D68770AE01D4B0E68978
S2140005401CE6BE0760BE0665A00A317F05A00E61E8
S214000550FB75A100D222C430610E30612FD4239ADD
S2140005606905991CB4B2B0B6AFB1B322C630611CEF
S21400057030613D9D2036610A3637612B3734610A7B
S2140005803435612B352396948795926171616A6143
S2140005906BBDF3FA1223B5B78795868492617161B5
S2140005A06A616BBDF3B6B4B2B0AFB7AFA100FA02E2
S2140005B0A101B7E6891CE64D00AD0186AE04E689CA
S2140005C01CE6BE04AE03BE05AE04BE03AE02BE0409
S2140005D060BE02B6B0AF891CD6AE04BE08AE05BE7D
S2140005E009AE02BE06AE03BE0787BE04AE01BE0558
S2140005F065616C616A616BE4E2B6B6B6B4AF891C3D
S214000600D6AE04BE08AE05BE09AE02BE06AE03BE3A
S2140006100787BE04AE01BE05E4E2B6B6B6B4AF3494
S21400062093F334B59A2D06B636F6F336AFB7AFB5B4
S2140006309A3506B6AFB7AF1F49029D0F30A10080AE
S2140006402130273027306106306127AE0470AE05B2
S2140006503198160300B716FD43B7B3B10202E8D2CD
S2140006600200E8D6891CE6300F302901E230290264
S214000670302903E2B6B6C1300DC3302D9EE2302DD0
S21400068026302D00E20300E8C20302E80200E8AFCD
S214000690A100B3B59E34EC1404E8A208C4D6A100A9
S2140006A0BE0197848452BDF4B4B2AFA101B39E35A7
S2140006B0ECA100A3019AF90DB2AFB3709E35ECA180
S2140006C0FF0835EC7DFF5834EC9E34EC6073A100D7
S2140006D09AF90DB2AFA1009B020EB3B5D46168AD16
S2140006E0396370A200FA044221257060310FF86366
S2140006F0B5B68686979ABE07C4D68770AE01D46212
S214000700A0023188CA04E8D68770AE0130616C302A
S214000710616D309760BE019ACA07B4B2AFB3B5D464
S2140007206168AD46B5B6AE0270A200FA0442212555
S2140007307060310FF89ABE07C4D68770AE01307D60
S214000740FF307DFFB162A0023188CA04E8D6B287C6
S21400075070AE0130615A30615B309760BE01C4D61E
S2140007608770AE019AAC079ACA07B4B2AFB38E359B
S214000770EC0834EC9E34ECAD1D70A200FA04422165
S214000780257060310FF862A0023188CA04E8D68767
S21400079070AE019A9807B2AFB5D49ABE07892430D6
S2140007A0616C30616D99249ACA07B4AF307DFF3012
S2140007B07DFFD6892430615E30615F9924AFA10049
S2140007C0F01E5D807B1E9E37ECAF7B1E8E37EC4D99
S2140007D000AD027A1EAFA1009E36ECEE240000EEBD
S2140007E026FF1F9A1F447A1E9AF407029E5BD69A2B
S2140007F0AA05FAF4B3B5B7FA4C875197C22125304B
S2140008002530D2892430615A30615B6168ADEA9A3E
S214000810BE07892430611A30613B99249ACA07C200
S214000820213027302790307DFF307DFF9926891CA8
S214000830D687A0023188CA9E5BD68770AE01D69A4C
S214000840AA05C499268924305E26305E276168ADE5
S2140008500E8926D4891CD6A10D97120010FAA4B0D2
S214000860B4B2AFB3B58E96ECA0023188CA39ECD6D6
S21400087087A0063188D48E96ECA0023188CABA5B6F
S214000880D68770AE01E430610C30612DD4C4D687B3
S21400089070AE01D69AAA054D00AD45C4D6AE02701C
S2140008A0AE03D69AAA05B5B6AE0541AD15848484C6
S2140008B0848485728E96ECA0023188CA39ECD662A2
S2140008C0FA1B8E96ECA0023188CA38ECD6A10097A7
S2140008D08E96ECA0023188CA39ECD6A10097FA2C85
S2140008E0B5B6AE0441AD258484848485A0063188DF
S2140008F0D48E96ECA0023188CABA5BD68770AE0159
S214000900E430610C30612DD46168BD81B4B2AFB5FE
S2140009101638ECA02FA10097B7B48495868650BDF4
S214000920F4B4AFB3A0023188CA38ECD6A10197A1BF
S214000930008697B2AFA0023188CA38ECD6A10097DD
S214000940AFA0023188CA38ECD6A10297AFA0023118
S21400095088CA38ECD6A10197AFA0023188CA38EC15
S214000960D687AFA101AFAFB3708E96EC72609E963D
S214000970EC634896EC8D228E96ECA0023188CA383D
S214000980ECD68751BD069A63089AF4078E96EC411A
S2140009909E96EC634896EC9DDE629E96ECB2AF1097
S2140009A097ECB3B51406001200009AF457B4B2AF31
S2140009B0B3B5D49ABE07645D0770A101C372C421A3
S2140009C02530253021253025302125302530CA9781
S2140009D0ECD687615AAD12645D0770A101C37DFF36
S2140009E07287615A97A201FA02A2009ACA0762B4F5
S2140009F0B2AFB3B5D49ABE07645D0770A101C372E7
S214000A00C4212530253021253025302125302530BC
S214000A10CA97ECD687616A979ACA07B4B2AF100134
S214000A2000B30318E8A1019E9DEC1000100314E823
S214000A301014E8A3029ADA06B2AFEA0000AD08D6B0
S214000A400218E8BE016097AFEA0000AD06D6A10026
S214000A50BE0197AFB3A200EA0000AD0BD68770AE1A
S214000A60016168AD02A20162B2AFB5B3B7D4A2000D
S214000A706168AD6565D68770AE016168AD59AE0137
S214000A80D60218E830611E30613FB6B1C4D6877012
S214000A90AE01D60218E830611E60613F9D0D891CCC
S214000AA0D68770AE0190309760BE01891CD68770DD
S214000AB0AE01B1891CD6AE0470AE05B630611E60BC
S214000AC0613F8D0C891CD6AE0270AE036168BD090D
S214000AD0C4D6A100BE0197A20162B2B2B4AFB3B54C
S214000AE0D41200006168AD2A65D68770AE016168D1
S214000AF0AD20AE01D60218E830611E30613FD2C488
S214000B00D68770AE01D60218E830611E60613F9D40
S214000B100192C2B4B2AF8E9DECA0000818E830284F
S214000B2019E80318E88E9DEC768E19E830611E6091
S214000B303D009D070218E8800318E8AFB39E9DECC1
S214000B4021279E16E88E9DEC2127731014E89ADA6A
S214000B5006B2AF1014E89B1D071600809B37069A56
S214000B600F099A9F099A90069B1E0A9BDC439BF0EE
S214000B7043100400C5101A00C5AF100700C51017B3
S214000B8000C5AF100E00C5AF100A00C5100C00C59A
S214000B90101400C59A82439B944A100B00C5100D92
S214000BA000C5101300C5AF100F00C5101000C5AF6C
S214000BB0101100C5101200C5AF101B00C5AF101CE9
S214000BC000C5AF101600C59B804A101500C59B5681
S214000BD057101900C59B804A101800C59B40579AAD
S214000BE0A54D9B5F569B924C9AF439102000C5AFDA
S214000BF09B4C509B55509B3C539B45539B6D539A27
S214000C0072439BAE4D9A7D439BC04D9BC64D9BBD8C
S214000C104A9BC64A9B9F489B93489BE3399B00454B
S214000C209A5C47102300C5AF9A6747102400C5AFEB
S214000C309AA54A9B80569A504A9B8B569B5C479A2D
S214000C40FF39102200C59B8A489B3C3A9B4C3A9B36
S214000C505A3A9A04439A514D9A684A9B73569B286F
S214000C60439B6A3A9A22279A532D9A85309ABB2F2D
S214000C709A8B2F9A932D9A53379A75399AA2319A4E
S214000C80053A9ABD3A9A143C9A413F9A813C9A8B0F
S214000C90409ACC429A9B3F9A193D9A403D9B6B3DA9
S214000CA09AE0449A9B4C9A20469A72479ABB479A77
S214000CB02D509A684E9A03549AD4489AEE499A66EA
S214000CC04C9AF8559B4C569BA62D9ABC2D9AA83547
S214000CD09AE6389AA1399A163A9AD03A9A3E3C9AA7
S214000CE029469A8D4E9A14499B304A9A72359ACE66
S214000CF0389A33399A96309A8A3C9B263D9AC24C4B
S214000D009A4D469A81479AC4479A3E509A7C4E9A84
S214000D10E1489A104A9A574C9AE3559A31569B786E
S214000D20579AD44C9A56469A85479AEF479A455012
S214000D309A804E9A02499A274A9A604C9AEC559A9B
S214000D403A569B6C579AAC2D9A98359AD7389A5340
S214000D50399AC4399AA7309A933C9B2F3D9B972D7E
S214000D609A6B2D9AB9359AB2389A7C3F9B044A9A68
S214000D70A3389ABF3B9A883F9A68429AD5429A60AF
S214000D80459AA44C9A5F469AFC479A714E9AD54863
S214000D909AF8499A6856AFA100B3A31D9A6709B29C
S214000DA0AFA11EB3A3279A6709B2AFA12CB3A32D98
S214000DB09A6709B2AFA128B3A32B9A6709B2AF719D
S214000DC03B69712B69111826714BE17B1E4B42C89B
S214000DD04400BD03714BE5C84402AD027A1E717A29
S214000DE069AF717B697B1E4A42C84400BD03714AE5
S214000DF0E5C84402AD027A1EAF53639E9FEC9EA0E8
S214000E00ECAF8EA0ECAFB1B7114401F4E56D1EF661
S214000E10E5F4E66D46F6E67A1E714BE18E9EEC4DE5
S214000E2000AD039A26168EA0EC4D00BD0B8E9FECEF
S214000E309EA0EC9A6D07FA04519EA0EC7B1E11440E
S214000E4000F04270F4E56158F6E5F04370F4E661B0
S214000E5058F6E6B6B08FA1029EA9EC713B6C712BDA
S214000E606C716A6C715B6C714A6C111A24713BE18F
S214000E707B1E3B42C84400BD03713BE5C84402AD3F
S214000E80027A1E717A6CAF717B6C7B1E3A42C84444
S214000E9000BD03713AE5C84402AD027A1EA1009E69
S214000EA0A9ECAF713BE19ADD0F9AF01E9B6D07131C
S214000EB099ACAF7B1EFAFEA101B3B513F0CC13F4C8
S214000EC00413A40113FB009EA4EC139F41717BA2A4
S214000ED0F4A34D108DFA106BEF13A10713A001CAEF
S214000EE00018D41000E81200009AF457A1009EA142
S214000EF0ECA1019EA4EC162D86A403C79AD607B4CF
S214000F00B2AFB58EA1EC4D00AD408E6DFB4D00AD81
S214000F10398EA4EC4D00AD22A1009EA6ECA10116D0
S214000F2001A1A403C7A1009EA4EC13A0003177A0E2
S214000F30FC13A100717AA2139F008EA3EC4D00ADA6
S214000F4009A1009EA5EC71000000B4AFB58EA1EC1F
S214000F504D00BD44A1019EA1EC9AE20DA1029EA205
S214000F60ECA1009EA6ECA1011601A1A403C7A10551
S214000F701636A6A403C7A1009EA3ECA1019EA5EC6D
S214000F80A1009EA4EC13A0003177A0FC13A1007171
S214000F907AA2139F009A560EB4AFB58EA1EC4D0000
S214000FA0AD39A1009EA1EC9EA2EC9A870E8EA4EC11
S214000FB04D00BD24A1019EA4EC139F41717BA2F4B9
S214000FC0A34D108DFAA10113A10713A0019EA6EC54
S214000FD0A1001601A1A403C79AC50DB4AFB58EA291
S214000FE0EC4D00AD58A1041636A6A403C78EA2EC9D
S214000FF0519EA2EC8EA2EC4D00BD42A1029EA2EC38
S2140010008E6DFB4D00AD2CA1041624A1A403C7A130
S214001010019EA4EC139F41717BA2F4A34D108DFAA0
S214001020A10113A10713A0019EA6ECA1001601A121
S214001030A403C7A1009EA3ECA1019EA5ECB4AFB388
S214001040B5D46168AD1B8EA4EC7265D68770AE0110
S214001050D662978EA5EC72C4D68770AE01D662862D
S21400106097B4B2AF4D01AD054D02AD07AFA1019EDD
S214001070A3ECAFA1029EA2ECAFB51656A4A403C77C
S214001080B4AFB51699A4A403C7B4AFB516CBA4A441
S21400109003C7B4AF100000B34B002B009A99111091
S2140010A000000A0D9A99111000009A9911A100717A
S2140010B0340027721000000B0D9A99116251BD047E
S2140010C0A101FA02A100B2AF1142FF1143FF114481
S2140010D00013E8FF13E93F13EAFF13EBF3AFB1B7D2
S2140010E09AB30EB6B09FB1B3B7F044721144028EF5
S2140010F0A8EC51BD059AE721FA039ABB1C9B271161
S214001100B1B3B7F044721144028EA8EC51BD039AF5
S214001110AE229B2711B1B3B7F044721144028EA8D9
S214001120EC51BD039A1A1F62F244B6B2B08FB1B347
S214001130B7F044721144028EA8EC51AD039AC4185D
S2140011409B2711B1B7114401F4E56D1EF6E5F4E6F0
S2140011506D46F6E67A1E8EA9EC51BD168E22ED4D32
S21400116000AD039A46268E25ED4D00AD089A4D2615
S214001170FA039AA30E7B1E114400F04270F4E56158
S21400118058F6E5F04370F4E66158F6E6B6B08F71AF
S2140011906A69715B69714B69AFD66168AD07C690C5
S2140011A0D66168BDF9AF712B20714B204B002B0028
S2140011B0AFB3B574635172100100C9634D00AD182A
S2140011C0644B0061586148BD042A00FA022B006493
S2140011D02127744A0053BDE82B00B4B2AFB372A304
S2140011E0002B004D00AD18A1004B000000000000D1
S2140011F04A007134002770632761687352BDE86344
S214001200B2AFAFB5EA0000BD039BB912D68770AE89
S21400121001D48E68FB4D00BD59F0005D2295F001AB
S2140012205D107D10B5B68697F0035D0F7D06B5B6EA
S214001230868697F0045D0D7D0DB5B686868697F09A
S214001240055D0B7D02B5B68686868697F0065D0F31
S214001250B5B6868686868697F00C5D197D18B5B677
S214001260E6CA0600E697F00E5D01B5B6E6CA0700C8
S214001270FA23F0015D107D10B5B68697F0055D087F
S2140012807D02B5B68686868697F00C5D197D18B504
S214001290B6E6CA0600E69731062407B5B686868601
S2140012A0718331462C0765CA0600D671C3311625F0
S2140012B00884848484C4D67193B4AFB3B5EA0000BE
S2140012C0AD5DD68770AE01D6875E2070F0207DFFBC
S2140012D0727B1EF001615A6168F2017A1EB7B4840F
S2140012E0855D02707B1EF0045DFD6168F2047A1E67
S2140012F0B7B48484855E2170F0217DFF727B1EF07A
S21400130005615A6168F2057A1EAE035E2270F0220D
S2140013107DFF727B1EF007615A6168F2077A1EB481
S214001320B2AF132810710A28AFA1009E6BFBAFA1C5
S214001330019E6BFBAF7B1E41F245A1019E9EEC7A9F
S2140013401EAFA1007B1E9E9EECF2457A1EAFA10347
S214001350B39A35138EF6EC4D01BD039B55144D0321
S214001360AD124D04AD214D05AD474D06BD039B198D
S214001370149B72149C01039B7214A1009EF7ECA1AF
S214001380049EF6EC9B72148EF7EC9C010F419EF7C0
S214001390EC4D059D039B7214A103FAE54D029D08D2
S2140013A0A1009EF7EC9B7214A1019EF7ECA105FA32
S2140013B0D0311301E38EF7EC419EF7EC4D029D030E
S2140013C09B7214A1009EF4EC7B1E2A42C84400BD0A
S2140013D003712AE5C84402AD027A1E7B1E1A43C872
S2140013E04400BD03711AE6C84402AD027A1E716B52
S2140013F070715B70717B7000717A70715A70711BBE
S214001400E27B1E1B43C84400BD03711BE6C84402B2
S214001410AD027A1EA1069B81138EF7EC419EF7EC77
S2140014204D058D4E7B1E2A42C84400BD03712AE539
S214001430C84402AD027A1E7B1E1A43C84400BD0390
S214001440711AE6C84402AD027A1EA103716B707170
S2140014505B709B81139A421310AEEC031EE88EF469
S214001460EC70A1000320E8121EE89A093BA1009E3A
S214001470F4ECB2AFB3A2008EF5EC51BD0AA1009E0B
S214001480F8EC9EF9ECFA7C8EF5EC7316ACECAB70CF
S214001490F4726148AD65310673693113014C8EF8FC
S2140014A0EC419EF8EC000000008EF8EC4D038D53E6
S2140014B0A100A2019EF6EC7B1E2A42C84400BD0392
S2140014C0712AE5C84402AD027A1E7B1E1A43C84440
S2140014D000BD03711AE6C84402AD027A1EA101716E
S2140014E06B70715B709A413BFA198EF9EC419EF96C
S2140014F0ECA1009EF8EC000000FA08A1009EF9ECB2
S2140015009EF8EC62B2AFB1B3B7114401F4E56D1EBC
S214001510F6E5F4E66D46F6E67A1E9A74144D00BDBE
S2140015204C8EF5EC48F4EC9D107316AEECABF674EE
S2140015308EF5EC419EF5ECFA34A1009EF6EC7B1E8F
S2140015402A42C84400BD03712AE5C84402AD027AA7
S2140015501E7B1E1A43C84400BD03711AE6C8440227
S214001560AD027A1E716B70715B709A413B7B1E11E7
S2140015704400F04270F4E56158F6E5F04370F4E696
S2140015806158F6E6B6B2B08FB1B3B7114401F4E5D0
S2140015906D1EF6E5F4E66D46F6E67A1EF4735D0714
S2140015A0BD359A42138EF6EC4D06BD0AA1019EF695
S2140015B0ECA1039A933B8EF4EC4D469D13F47270A7
S2140015C08EF4EC736016AEECBB8EF4EC419EF4EC3D
S2140015D0A1089A3513FA4C7B1E2A42C84400BD0364
S2140015E0712AE5C84402AD027A1E7B1E1A43C8441F
S2140015F000BD03711AE6C84402AD027A1E716B7014
S214001600715B70717B7000717A70715A70711BE239
S2140016107B1E1B43C84400BD03711BE6C84402ADD5
S214001620027A1E9B6D15C84500AD0A9145C8450057
S214001630BD039A4E13AF138C001343001341FFAF44
S214001640B1114401F4E56D1EF6E5F4E66D46F6E6E6
S2140016507A1E8C0E098EFDEC419EFDECFA078EFE7E
S214001660EC419EFEEC8EFDEC4D079D078EFEEC4D8C
S214001670078D137B1E6A43C84400BD03716AE6C823
S2140016804402AD027A1E7B1E114400F04270F4E55F
S2140016906158F6E5F04370F4E66158F6E6B08F71EF
S2140016A06B50715B50135604717B50135797715BE8
S2140016B050714B50713B50712A50711B50710A503B
S2140016C0711A58AFA1009E06EDAFB1B3B711440131
S2140016D0F4E56D1EF6E5F4E66D46F6E67A1E8E0433
S2140016E0ED4D048D5FA1009E04ED8E05ED419E0537
S2140016F0EDA1039E03EDA1009E06ED8E05ED4D04C3
S2140017008D1E7B1E1A42C84400BD03711AE5C844EC
S21400171002AD027A1E717B50716B50710B583B0103
S214001720714A6F715A6F716B6F712BE27B1E2B4380
S214001730C84400BD03712BE6C84402AD027A1E7190
S2140017400A6FFA0E7316FFECABF20B8E04ED419E99
S21400175004ED7B1E114400F04270F4E56158F6E596
S214001760F04370F4E66158F6E6B6B2B08FB1B3B7A0
S214001770114401F4E56D1EF6E5F4E66D46F6E67AEC
S2140017801E8E06ED419E06ED8E03ED4D00AD0E4D10
S21400179001AD204D02AD3D4D03AD73FA138E06ED3F
S2140017A04D058D0CA1013A019E03EDA1009E06EDAC
S2140017B09B52178E06ED4D028DF6A1029E03EDA1FB
S2140017C0009E06ED717A50716A50715B503A017155
S2140017D00A58FADC8E06ED4D128DD57B1E2A43C8BC
S2140017E04400BD03712AE6C84402AD027A1EA10079
S2140017F0710B6F9E06EDA1049E03ED8E04ED73162D
S214001800FFECABF20B8E04ED419E04EDFAA28E06C1
S214001810ED4D058D9B8E05ED4D048DBF7B1E2A4339
S214001820C84400BD03712AE6C84402AD027A1EA170
S21400183000710B6F9A593D9BB017B3728E0AED4D2F
S214001840589D3B4D00BD0C100CED0326E8629E0C27
S214001850EDFA240226E8EA17ED9D1CEA0CED8D173A
S214001860D6872127610A978E0AED5D074D07BD07CB
S2140018700226E8800326E88E0AED419E0AEDB2AF06
S214001880A100B3B5717AE5712AE7712BBA713BBA3C
S214001890712BB6713BB69E07ED9E08ED9E09ED9E38
S2140018A00AED700324E8100CED140B001200009AE9
S2140018B0F457100000032AE8100CED0328E803266E
S2140018C0E8B4B2AFB3B58914D4717BE18E0BED4D9D
S2140018D001AD2D4D02BD039BB1194D04BD039BFF09
S2140018E0194D05BD039B531A4D06BD039B991A4D12
S2140018F008BD039BC81A4D0ABD039B811B9B9F1CFA
S2140019008914D430182CE830382DE80324E8C403B2
S2140019102CE80224E8EAE1088D52EA55129D4D8E25
S21400192007ED419E07ED4D089D039BB81CA1007175
S2140019302BB6713BB6712BE3712AE79E07EDA10229
S214001940712BBA713BBA711BBB710BBB710BBC71AF
S2140019501BBC712BBCEE146F04EE126F04712ABA16
S214001960713ABA9E0BED9A0F3F9BB81CEAC2118DD6
S21400197005EAA9248D11EA510D8D05EA7F1B8D0716
S2140019808E08ED4D028D23A10C717AE5712AE77160
S2140019902BBA713BBA712BB6713BB61B0E9E0BED84
S2140019A0A1039A0F3FA1019BB51C419E08ED9BB871
S2140019B01C8C00438E07ED419E07EDA1009E08EDAE
S2140019C08E07ED4D059D039BB81CA103712BBA71C4
S2140019D03BBA717AE59E0BED712BB6713BB6711B67
S2140019E0B7710BB7FEB28B6A712AB6713AB6712B15
S2140019F0E3712BE79BB81CA1009E07ED9BB81C313A
S214001A0003000DA1009E08EDA1059E0BED9BB81CE2
S214001A108E08ED419E08ED4D039D039BB81CA1006A
S214001A20712BB6713BB6712BE39E07EDA102712BAD
S214001A30BA713BBA711BBB710BBB710BBC711BBC83
S214001A40712BBCEE146F04EE126F04712ABA713A51
S214001A50BAFAB78C00BAA106712BBA713BBA9E0BC4
S214001A60ED712BBA713BBA711BBB710BBB710BBC12
S214001A70711ABC712ABCEE12FEFF714ABB715BBBC9
S214001A80712ABA713BBA712BB6713BB6711BB7712E
S214001A900BB7FEB27D1B9BE81965717AE5712BB614
S214001AA0713BB6711BB7710BB7301E10303E11CAB2
S214001AB0220AB9B2C4712AB6713AB6032CE8A1005C
S214001AC09E07EDA1079B0A1A8914D430182CE8301B
S214001AD0382DE80324E8C4032CE80224E8EA55126B
S214001AE08D30A109717AE59E0BEDA1009E0AED9E50
S214001AF009EDC4712BB6713BB6711BB7710BB730CD
S214001B001E10303E11CA220AB9B2712AB6713AB610
S214001B10FA668E07ED419E07ED4D0E8D35A10071DC
S214001B202BB6713BB6712BE39E07EDA102712BBA63
S214001B30713BBA711BBB710BBB710BBC711BBC71CB
S214001B402BBCEE146F04EE126F04712ABA713ABA07
S214001B50FA23C4712BB6713BB6711BB7710BB73045
S214001B601E10303E11CA220AB9B2A107712AB671F8
S214001B703AB6717AE59E0BED1000000324E89BB898
S214001B801C8914D430182CE830382DE80324E8C417
S214001B90032CE80224E8EA55129D488E09ED4D0014
S214001BA0BD3AA1019A3A188E0AED4D588D5210583A
S214001BB000032AE8701428E8A301B5D402F45DD621
S214001BC0C4B49AAA05A100712BBA713BBA712BB6A0
S214001BD0713BB6712BE3712AE79B281BA1009A3A4A
S214001BE018FAC4EA7F1B8E09ED9D484D00A100BD82
S214001BF02C9A3A188E0AED4D589DACA1019E09ED1F
S214001C00C4712BB6713BB6711BB7710BB7301E1083
S214001C10303E11CA220AB9B2A1099B6C1B9A3A1827
S214001C20A1019A3A188E0AED4D588D039BA71BA169
S214001C3000FACA4D00BD0DA1009A3A18A1019A3AC1
S214001C40189BA71B8E0AED4D0ABD3E100A00712B8D
S214001C50BA713BBA717BE1717AE5032AE870142801
S214001C60E8A301B5D402F85DD6C4B49AAA05A10BC0
S214001C70712BB6713BB6711BB7710BB7FEB20EEA8D
S214001C80712AB6713AB69B0A1AA100712BB6713B3F
S214001C90B6712BE39E07EDA102717BE19B2E1AA184
S214001CA001717AE5712AE7712BBA713BBA712BB6CE
S214001CB0713BB61B0E9E6DFBB4B2AFB3B58E0BED8B
S214001CC04D00AD3B4D01BD039B4E1D4D03BD039B1B
S214001CD0711D4D06BD039BAF1D4D07BD039BF11D3A
S214001CE04D08BD039B1B1E4D09BD039B571E4D0A89
S214001CF0BD039B711E4D0BBD039BC61E9BD41E10C1
S214001D000000712BB6713BB6711BB7710BB7FEB2F4
S214001D1047B7712AB6713AB6717BE1717BE5712BD4
S214001D20BA713BBA711BBB710BBB710BBC711ABC91
S214001D30712ABCEE12FEFF714ABB715BBB712ABAF8
S214001D40713BBA032CE8A1019E0BED9BED1EA10C86
S214001D50717AE5712AE7712BBA713BBA712BB671AD
S214001D603BB61B0E9E0BEDA1039A0F3FA1019BEA0B
S214001D701EA100712BB6713BB6712BE3712AE79E4C
S214001D8008EDA104712BBA713BBA711BBB710BBB7A
S214001D90710BBC711BBC712BBCEE146F04EE126F82
S214001DA004712ABA713ABA717BE1717BE5FA99A19E
S214001DB000712BB6713BB6712BE3712AE7712BBA13
S214001DC0713BBA9E07EDA102717BE1712BBA713BA4
S214001DD0BA711BBB710BBB710BBC711BBC712BBCEE
S214001DE0EE146F04EE126F04712ABA713ABA9B4869
S214001DF01DA108717BE1717BE5712BB6713BB67155
S214001E002BE3712BB6713BB6711BB7710BB7FEB2E5
S214001E109C12712AB6713AB69B481DA100717AE5EC
S214001E20712AE79E07EDA102712BBA713BBA711BAE
S214001E30BB710BBB710BBC711BBC712BBCEE146F62
S214001E4004EE126F04712ABA713ABA9E0BED717BDA
S214001E50E1717BE59BED1EA10A712BB6713BB67155
S214001E601BB7710BB7FEB2C61B712AB6713AB6FA2B
S214001E70DA712BB6713BB6712BE38E0AED4D0ABDB7
S214001E8038100A00712BBA713BBA717BE1717AE5A2
S214001E90032AE8701428E8A301B5D402F85DD6C476
S214001EA0B49AAA05A10B712BB6713BB6711BB7711C
S214001EB00BB7FEB20EEA9B121EA1009E07EDA10212
S214001EC0712AE79BCB1DA100712BB6713BB6712B17
S214001ED0E39B201EA101717AE5712AE7712BBA7186
S214001EE03BBA712BB6713BB61B0E9E6DFBB4B2AF00
S214001EF0A1069B0F3FA104716BE1712BBA713BBA2F
S214001F00712BB6713BB6713AE7716AE5712AE76BD9
S214001F10009E18EDA1009EA8ECAFB3B58E18ED4D4F
S214001F2000AD0E4D02AD364D03BD039B7F219BE1F8
S214001F3021A1066A00712BBA713BBA711BBB710AEC
S214001F40BBEE120710716BE1712ABA713ABA712BA7
S214001F50B6713BB6713AE79E18ED9BE121A9B42114
S214001F60302730272130273027992C301E2E303E40
S214001F702FEA00038D46EA01059D418E1CED4D00BB
S214001F808E19EDBD274D00022EE8D6BD06A101979D
S214001F909B1821872797022EE8D68741978E19ED42
S214001FA05D074D07AD039B18219B11214D00022EA6
S214001FB0E8D6BD04A100FAD78727FAE0EAD9068D4D
S214001FC0039B85208E1CED4D008E19EDBD554D00F2
S214001FD0022EE8D6BD05A10097FA138727978E191B
S214001FE0ED5D074D07BD07022EE890032EE88E191B
S214001FF0ED419E19ED481AED8D039B2F21A1019E00
S2140020001CEDA101712BBA713BBAEE12AB02716BDB
S214002010E1712ABA713ABA713AE7713BE39E18ED5C
S2140020209B79214D00022EE8D6BD05A10097FA1334
S2140020308727978E19ED5D074D07BD07022EE8909E
S214002040032EE88E19ED419E19ED4D00022EE8D6BE
S214002050BD05A10197FA1A872797022EE8D6874171
S214002060978E19ED5D074D07BD07022EE890032EEB
S214002070E88E19ED419E19ED481AED8D039B2F2130
S214002080A1009BFF1FEA21098D039B21218E1CEDD9
S2140020904D008E19EDBD354D00022EE8D6BD05A1CA
S2140020A00097FA138727978E19ED5D074D07BD0732
S2140020B0022EE890032EE88E19ED419E19ED4D0094
S2140020C0022EE8D6BD039B8D1F9B931F4D00022E4C
S2140020D0E8D6BD05A10197FA1A872797022EE8D6FB
S2140020E08741978E19ED5D074D07BD07022EE890D4
S2140020F0032EE88E19ED419E19ED4D00022EE8D60E
S214002100BD039BB41F8727978E19ED5D074D07BD4E
S21400211007022EE890032EE88E19ED419E19EDFA7F
S2140021200E100000A30116A0ACA401C79AF51E8EDF
S21400213019ED481AED9D039B02209AF51E8E1EEDA2
S2140021404D00AD248E1AED70A100992A104AFE9912
S21400215028101800731615ACA401C7A1001228FE9B
S2140021601680ACA401C7FA0A1000007316A0ACA42F
S21400217001C78E18ED4D04AD68892C992EFA62A918
S214002180B421302730272130273027992CEA0D003C
S2140021908D24EA8C019D1FA10D712BBA713BBA717B
S2140021A01BBB710ABBEE123F9C716BE1712ABA71C0
S2140021B03ABA6B00FA22712BBA713BBA711BBB712B
S2140021C00ABBEE127F0C716BE1712ABA713ABA8EB5
S2140021D01BED419E1BEDA10A9E18ED712BB6713BBF
S2140021E0B6713BE3B4B2AFB38E18ED4D06AD039BAC
S2140021F0A922892A90992A6168BD26A1076B0071D9
S2140022002BBA713BBAEE127F04716BE1712ABA7178
S2140022103ABA712BB6713BB613B9009E18ED9BA95E
S214002220228928D687212797892A605D07BD0589D8
S214002230289099288928D6A9B099308910993231E2
S214002240F71D10DF00712BB6713BB6301E30303EE6
S21400225031301E34303E3590B9B210AF00FA1B1044
S2140022609400712BB6713BB6301E30303E31301EB6
S21400227034303E3590B9B2106400301E30303E31F6
S214002280301E34303E3590B9B413B912710AB971A4
S2140022902AB6713AB68910301E32303E33212530C8
S2140022A0253021253025309934712BE3B2AFB3B5F4
S2140022B08E18ED4D00BD039B64234D01BD039BC9E5
S2140022C0244D02BD039B2D244D03BD039B7D254D50
S2140022D005AD424D06BD039B9F234D07BD039B3EA8
S2140022E0244D08BD039B66244D09BD039B74244DF5
S2140022F00ABD039BEA244D0BBD039B46254D0CBD32
S214002300039B0F264D0DBD039B06264D0EBD039B5E
S2140023102F269B4026A100712BB6713BB6711BB7CA
S214002320710AB7710BB8711BB8712AB8710BB97105
S2140023304AB7715BB7EE2E0000712AB6713BB671D4
S2140023403AE7713BE3713BE7712BBA713BBAEE1289
S2140023500F03716BE1712ABA713ABA9E1BED9E1893
S214002360ED9B4026DC00308E1BED419E1BED4D079D
S2140023709D039B4026A1066A00712BB6713BB67181
S2140023803AE7712BBA713BBAEE126F10716BE171BE
S2140023902ABA713ABAFAC7A1009E1BED9B4026895D
S2140023A02AEA0500AD0FEA0A00AD0AEA2000AD05EC
S2140023B0EA4000BD78EE300000712AE7712BE37129
S2140023C02BE76B0012FC03892ACF712BBA713BBA3C
S2140023D0909912716BE1712ABA713ABA8928D6318E
S2140023E0F71C712BB6713BB6711BB7710AB7710B30
S2140023F0B8712BB8FEB2CC00FEB49C00FA1A712B52
S214002400B6713BB6711BB7710AB7710BB8712BB8B2
S214002410FEB28100FEB45100A10613B912710AB9CA
S214002420712AB6713AB6EE3408009B5E239AF51E02
S214002430100000A30116A0ACA401C79B4026712A79
S214002440E78E1DED4D00AD0FA108712BBA713BBA9A
S214002450EE127FBB9B8C23A109712BBA713BBAEE9F
S2140024601267259B8C239AF51E100000731615AC78
S214002470A401FAC6A100712BB6713BB6711BB771E9
S2140024800AB7710BB8711BB8712AB8710BB9714ACB
S214002490B7715BB7EE2E0000712AB6713BB6712B92
S2140024A0BA713BBAEE12FF02716BE1712ABA713A49
S2140024B0BA9E19EDEE2C00009E1CEDA1019E18EDB3
S2140024C0713AE7713BE39B4026A102712BBA713B40
S2140024D0BAEE120F09716BE1712ABA713ABA713A03
S2140024E0E7713BE3713BE79B5E238E1BED4D059D3D
S2140024F0333153000A8E20ED4DFFAD0841FA02A19C
S214002500009E20EDA10B712BBA713BBA711BBB71FB
S2140025100ABBEE12AF36716BE1712ABA713ABA6A2B
S214002520009B5E239AF51E8E20ED4D078D04A109B3
S214002530FA098E21ED4D048D08A10816ABABA40157
S214002540C7A1019B3926DC000A8E21ED4DFFAD08A0
S21400255041FA02A1009E21EDA101712BBA713BBA8E
S214002560711BBB710ABBEE122F07716BE1712ABAA1
S214002570713ABA6B009E1FEDA1039B5E238E1FED82
S2140025804D00AD54DC0051A100713AE7713BE37198
S2140025903BE7712BBA713BBA711BBB710ABBEE12DB
S2140025A0EF0A716BE1712ABA713ABA712BB6713BB8
S2140025B0B6711BB7710AB7710BB8711BB8712AB820
S2140025C0710BB9714AB7715AB7EE2E0000712AB670
S2140025D0713BB69E1FEDFA68712BB6713BB6713A29
S2140025E0E7712BBA713BBA711BBB710ABBEE127F47
S2140025F00C716BE1712ABA713ABA8E1BED419E1BC3
S214002600EDA10A9B5E239AF51EA101A300FA2BA159
S2140026100E712BBA713BBA711BBB710ABBEE12CF9F
S21400262007716BE1712ABA713ABA6B009B5E239A06
S214002630F51EA1049E18EDA100731631ACA401C7C7
S214002640716BE1B4B2AF9A2D43713BE1AF8E23EDCF
S2140026504D00BD12A100717B6C710B6C717A6C9E83
S21400266025ED716B21AF8E24ED4D00BD13A1019EAB
S21400267024ED717B6C710A6C717A6CF01BF21BAFE7
S214002680A1006B019E24ED9E25EDAFB5B7891CD643
S214002690EAA8FB9D06D416A8FBFA0914A8FBFA04C0
S2140026A0A1699584C630611C60613D9DF3B0B4AFEE
S2140026B0B38E26ED4D00AD08A12E739A6709FA0376
S2140026C09A020FA10D9E27ED16E8FBAE0272AE032E
S2140026D0738770AE01B5D4641DD070653DBA616075
S2140026E0623DAD6160633D0B6160B4AD0C8E28ED5C
S2140026F04D00AD05A1009E28EDA6A8AE0272AE0361
S214002700738770AE01B5D4641DD070653DBA616044
S214002710623DAD6160633D0B6160B4AD039AB30E7C
S214002720B2AF100200B30340E8A0040338E810403C
S214002730E8A3109ADA061038E8A3049ADA06A1008D
S2140027409E26EDA10D9E27EDA1019E28ED9A8B26D3
S21400275010D0BA16E8FB12AD0BBE016097C2BE03DE
S21400276060BE0210D0BAA6A8BE016097C2BE0360C3
S214002770BE02B2AF108000B30330E8A0400334E8D6
S214002780A020033CE81030E8A3029ADA061034E8EA
S214002790A3049ADA06103CE8A3109ADA06A1019E72
S2140027A026ED9A530B9AD5069A8B109AAB06A10182
S2140027B09A3C0BB2AF1030E89A1D071034E89A1D09
S2140027C007103CE89A1D07A1009E26ED9A530B9A27
S2140027D0D5069A8210A1089ABA06A1089B3C0B8ED1
S2140027E027ED4D00AD07519E27ED9AAF0EAFB3B55E
S2140027F08E50E84D00BD30A1029E2EED1052E8D35B
S2140028008E50E84D00AD0E4D01AD2A4D02AD384D4F
S21400281003AD3EFA1D124AE8024EE830273027166E
S2140028208B92A403C7FA0B9A942D51ADCAA1019EB0
S2140028302EEDB4B2AF124AE8024EE8213027302718
S214002840162292A403FADDA100160993A403C7FA80
S214002850E1A101FAF4B38E2AED4D01AD234D02AD90
S214002860654D03BD039BDD294D04BD039B25294D06
S21400287005BD039BC7294D06BD039BED299B1C2A5E
S214002880024CE821256025728E2CED610A9E2CED07
S214002890482DED9D278E4DE830084AE830284BE855
S2140028A0034AE862A000084EE830284FE8034EE8E6
S2140028B0100200034CE89AEE279B1C2AA1009E2AD1
S2140028C0EDA3019BFE298E2CEDA00231883008482E
S2140028D0E8302849E8D68770AE01D60246E830616F
S2140028E01E30613F6168BD34024CE82125602572C8
S2140028F08E2CED610A9E2CED482DED9DBF62A0004A
S214002900084EE830284FE8034EE8100200034CE873
S2140029101046E8034AE89AEE279B1C2AA1009E2A46
S214002920ED739BFE298E2CEDA0023188300848E816
S214002930302849E8D68770AE01D60246E830611ED8
S21400294030613F6168BD50A1009E2BED024CE8212E
S214002950256025728E2CED610A9E2CED482DED9D8E
S2140029602562A000084EE830284FE8034EE8100223
S21400297000034CE81046E8034AE8A1001650E89722
S2140029809AEE279B1C2AA1069E2AEDA1021650E865
S214002990979AEE279B1C2A8E2BED4D059DE8A105E8
S2140029A09E2AED8E2BED419E2BED8E2CEDA0023156
S2140029B088300848E8302849E8034AE8A10116505C
S2140029C0E8979AEE27FA551046E8034AE8A100165B
S2140029D050E897A1049E2AED9AEE27FA3FA1049E9E
S2140029E02AEDA1001650E8979AEE27FA2FA1009E2E
S2140029F02AED8E2BED4D059D039BC128A3008E2945
S214002A00ED72A0043188CA5F5CD687A0023188CAFE
S214002A10885CD68770AE01D6629AAA05B2AFB3B507
S214002A208E2EED4D01AD0A4D02AD5C4D03AD71FA33
S214002A30779A942D51BD71A1029E2EED1052E8D3C7
S214002A408E50E84D00AD0E4D01AD1C4D02AD2A4D29
S214002A5003AD30FA53124AE8024EE8302730271604
S214002A608B92A403C7FA41124AE8024EE8213027A7
S214002A703027162292A403FAEBA100160993A403AA
S214002A80C7FA25A101FAF48E50E851BD08A1021636
S214002A900993A403C71052E8120A00D54D00AD08EA
S214002AA0A1009E2EED9A5528B4B2AFB3B50244E805
S214002AB06168AD6AA101D7A1009E29ED1401001638
S214002AC044E831861B8E29ED419E29EDC42130272E
S214002AD03027D40244E830615C30615D6168ADE562
S214002AE0C47B1E307DFF307DFF305844E8305845AB
S214002AF0E80344E87A1EA3018E29ED72A00431880B
S214002B00CA5F5CD687A0023188CA885CD68770AE5A
S214002B1001D6629AAA051054E8A3019ADA06B4B25E
S214002B20AFB3729ABE07100100C9306844E8306837
S214002B3045E80344E89ACA078E29ED4DFFBD061006
S214002B4001009A9807B2AFB3708E29ED6148BD04B4
S214002B50A101FA146072100100C9305844E83058D8
S214002B6045E86168BDEAA100B2AFA1FF9E29ED105D
S214002B7054E89A1D070244E86168AD061001009A01
S214002B809807AFB5D48E29ED4DFFAD42656168ADAF
S214002B903DA1019E2AED629E2DEDA1009E2CED8E9C
S214002BA029EDA0043188CA5C5CD68770AE01D66376
S214002BB0726730610A302D00034EE8100200034CA5
S214002BC0E8C4034AE8A1001650E8979AEE27B4AF87
S214002BD0B5D48E29ED4DFFAD74656168AD6F637633
S214002BE062A000610E302D00B18E29EDA004318860
S214002BF0CA5E5CD68770B6677D807760A080611EEF
S214002C0060613F8D48A1039E2AED629E2DEDA100D6
S214002C109E2CED8E29EDA0043188CA5C5CD68770A8
S214002C20AE01D663726730610A302D00034EE8109D
S214002C300200034CE81046E8034AE8A1031650E8F1
S214002C4097C40348E8A1009E2BED9AEE27B4AFB5D3
S214002C50D48E29ED4DFFAD48656168AD43A1029E57
S214002C602AED629E2DEDA1009E2CED8E29EDA0048E
S214002C703188CA5C5CD68770AE01D66372673061F5
S214002C800A302D00034EE8100200034CE81046E818
S214002C90034AE8A1001650E897C40348E89AEE27CE
S214002CA0B4AFD68E29ED4D0ABD2A676168AD25A161
S214002CB0019E2AED659E2DEDA1009E2CEDC2034ED1
S214002CC0E8100200034CE8C6034AE8A1001650E8E4
S214002CD0979AEE27AFB18E29ED4D0ABD41891CD6D5
S214002CE08770AE016168AD36A1039E2AED659E2D04
S214002CF0EDA1009E2CEDC2034EE8100200034CE846
S214002D001046E8034AE8A1031650E897891CD687C0
S214002D1070AE010348E8A1009E2BED9AEE27B0AFF7
S214002D204D02AD0BA1039E2EED1001009A9807AF41
S214002D30A1039E2EED1001009B9807A1039E2EED89
S214002D401001009B98078E29ED4DFFAD039B1E2AB0
S214002D509BAB2A1000000344E89E2AEDA1FF9E29A3
S214002D60EDA1009E2EED800354E8AF8E29ED4DFFB9
S214002D70AD05102800C5AF0244E86168BDF4AF8E0B
S214002D8029ED4DFFAD03A101AF0244E86168BDF631
S214002D90A100AFAFA101AF9A7F2D4D00AD04102763
S214002DA000C5AF9B652E9A12309B172EAF10A6E873
S214002DB0D3AF10A6E8B312F401D5B2AFA100B5D9CF
S214002DC0A1019E2FED8EAEED4D00AD0D16BBE83188
S214002DD0D607A10071D29A322E1658B1A402C7A106
S214002DE028D9B4AFB51658B1A402C7B4AFB3B572FC
S214002DF014000052AD1762A0023188CA58E8D68780
S214002E0070AE0130610C30612DD452BDE9C4307D06
S214002E10FF307DFFB4B2AFB3B5A200144FEDC4D6F9
S214002E206271930D059A212B4262844D058DEFB495
S214002E30B2AFB3720D059A472B4D00AD0B6270A171
S214002E4000CA4FEDD63197106270A100CA4FEDD67A
S214002E506271920D059A212BB2AF70A100CA4FED98
S214002E60D6875D01AF104AEDB3B5B7A200B6B11470
S214002E704FED891CD68770AE01D68751AD0D891CE3
S214002E80D68770AE01D6874D02BD19620D059A47EA
S214002E902B4D00AD05C4D631970AC4D66271920D8B
S214002EA0059A212B4284891CD68770AE01D686C629
S214002EB0B6B1624D058DBBB0B4B2AF0D059B472BC6
S214002EC0B5167481A403C7B4AFB3B5A4008E58ED8D
S214002ED04D00AD0B4D01AD2F4D02AD6D9B752F8E88
S214002EE055ED73164AEDAB4D028E56ED72BD097365
S214002EF01058E89AD02BFA081058E8A3009AD02B5E
S214002F00A1019E58EDFA6E8E54ED518E55ED73BDAF
S214002F1021164AEDAB4D028E56ED72BD0A1058E8EA
S214002F20A3009AD02BFA07731058E89AD02BA10268
S214002F30FAD0A101164AEDBBA3028E55ED1609B0D4
S214002F40A402C7A100A402FAB9A1009E58ED8E54AF
S214002F50ED518E55ED73BD0AA100164AEDBBA401D6
S214002F60FA13A102164AEDBBA3038E55ED1609B05F
S214002F70A402C7A40264B4B2AFB5165682A403C7AF
S214002F80B4AFB5164A83A403C7B4AFA100B3B59EC9
S214002F9057ED9E58ED9E59ED9E5AED104FED1405D7
S214002FA0001200009AF457104AED140500120000B3
S214002FB09AF457A1059E55EDB4B2AFA100B3B59EE5
S214002FC061ED9E62ED105CED1405001200009AF4AF
S214002FD057B4B2AFB5B3D4120000891CD68770AE12
S214002FE0016168AD20C4D68770AE0130610A3061D9
S214002FF02BD28484891CD68770AE0190309730BE61
S214003000016168BDE0C2307DFF307DFFB2B4AF9B8A
S214003010472BB3B5A200145CEDC4D66271839A2127
S2140030202B4262844D058DF1B4B2AFB3729A472B32
S2140030304D00AD0B6270A100CA5CEDD631870E6202
S21400304070A100CA5CEDD66271829A212BB2AFB332
S214003050A20070A100CA5CEDD6319602A20162B24F
S214003060AFB5160A95A403C7B4AFB516359CA4032E
S214003070C7B4AFB5165F9CA403C7B4AFB516879C9C
S214003080A403C7B4AFA1019E78ED9E79EDA1009E82
S21400309065ED9E66EDAF100008B303B8E910B8E919
S2140030A0A3029ADA06B2AF10B8E99B1D07109C5D22
S2140030B0B3B5B7B7B7167EA0A403C710A05DD68970
S2140030C01CE6BE0560BE0410CCE9B6B110BCE9D65D
S2140030D0891CE6BE0360BE02A3088770AE01D687D1
S2140030E070AE01D4891CD68770AE01D6B7891CD6BF
S2140030F0AE0470AE05D68770AE01B1891CD6AE0898
S21400310070AE09D68772C49A3101D6C430611E30BB
S214003110613FB630610E30612FB6BE016097891CE4
S214003120D6AE0270AE03D68686891CE6BE0360BEA7
S214003130028770AE01D68686C6B6B1891CD6AE04A6
S21400314070AE05D686891CE6BE0560BE0453BD8AF1
S2140031509A5931B0B0B0B4B2AF02CAE9D68E6EFB9F
S2140031604D00BD1C67EABD038D178E7AED4D00AD90
S21400317005A1019E7DEDA1019E7AEDA1009E7EED4A
S214003180AF67EAA0039D118E7AED4D00BD05A10044
S2140031909E7DEDA1009E7AED67EA4E019DDDA101C0
S2140031A0FADB10A85DB516FEA4A403C7B4AFB3B58A
S2140031B0D14000891CCA1400D6A10097107DFED607
S2140031C0891CE6BE1360BE121086FED6891CE6BEBB
S2140031D01B60BE1A891CCA3700D6891CE6BE196059
S2140031E0BE18891CCA2E00D6891CE6BE1160BE1009
S2140031F01059FED6891CE6BE0960BE081062FED6CF
S214003200891CE6BE0760BE06891CCA2500D6891C36
S214003210E6BE0D60BE0C1050FED6891CE6BE0560EC
S214003220BE04106BFED6891CE6BE0360BE02891C77
S214003230CA1C00D6891CE6BE0F60BE0E1074FED6F1
S214003240891CE6BE0B60BE0A108FFED6891CE6BE41
S2140032501760BE16891CCA1500D6A10997891CD608
S214003260B7B4AE1A70AE1BD68772891CD6AE127073
S214003270AE13D687617AB5B6977DFF74AE1870AE7A
S21400328019D66497891CD6AE1070AE11D6B7891CB5
S214003290D6AE0870AE09D68772891CD6AE02615AC1
S2140032A072AE0A70AE0BD687706430615062616091
S2140032B060B697891CD6AE0C70AE0DD6B7891CD6F4
S2140032C0AE0470AE05D68772891CD6AE02615A72FD
S2140032D0AE0670AE07D6877064306150626160607B
S2140032E0B697891C80D6B7891CD6AE0A70AE0BD6A8
S2140032F08772891CD6AE02615AB697891CD6AE0E66
S21400330070AE0FD6B7891CD6AE0E70AE0FD6877DC0
S214003310FF72891CD6AE0470AE05D687615A7389D3
S2140033201CD6AE0C70AE0DD6877264326152891C04
S214003330D6AE03616A616BB697891CD6AE0270AED4
S21400334003D6B7891CD6AE0C70AE0DD68772891C14
S214003350D6AE02615A72AE0870AE09D68761546264
S214003360616464B697891CD6AE0870AE09D4AE0404
S21400337070AE05D68772891CD687615A95AE0470E2
S214003380AE05D4AE1070AE11D68795891CD6AE06A3
S21400339070AE07D4AE0C70AE0DD68795891CD6AE2F
S2140033A00A70AE0BD4AE0E70AE0FD68795891CD6BB
S2140033B0AE1670AE17D4AE019572AE1270AE13D6BE
S2140033C087617A97891CD6AE0270AE03D687748959
S2140033D01CD6AE0670AE07D68773891CD6AE0870AC
S2140033E0AE09D68772891CD6AE0470AE05D6876144
S2140033F06A616B616CAD09891CCA1400D6A101977D
S214003400891CD6AE1670AE17D686891CE6BE176027
S214003410BE16AE0A70AE0B80D6891CE6BE0B60BE2A
S2140034200AAE0E70AE0FD686891CE6BE0F60BE0EC4
S214003430AE0270AE0380D6891CE6BE0360BE02AE46
S2140034400470AE0580D6891CE6BE0560BE04AE0CD0
S21400345070AE0DD686891CE6BE0D60BE0CAE06703C
S214003460AE0780D6891CE6BE0760BE06AE0870AE04
S2140034700980D6891CE6BE0960BE08AE1070AE1183
S214003480D686891CE6BE1160BE10AE1870AE19D680
S21400349086891CE6BE1960BE18AE1A70AE1BD686AC
S2140034A0891CE6BE1B60BE1AAE1270AE13D68689A5
S2140034B01CE6BE1360BE12AE1551BE15AD039B5D75
S2140034C032AE14DB4000B4B2AF10E8E9B3B5B79A39
S2140034D003129A5F378E81ED4D00AD0E4D01AD6142
S2140034E04D02BD039B68359B6E35891CD6A100979F
S2140034F0A109127DFE147DFE8697C4D6AE0970B370
S214003500B6876148AD06891CD6A101978482891CBE
S214003510D6AE0151BE01BDE2874D00AD51A101D727
S21400352010E4E99A1D0710000403E4E910E4E9A397
S214003530019ADA06A1019E81ED9AAE319A1038FA08
S2140035402D9AAE31729A1038624D00BD21A1009EB0
S21400355081ED10E4E99A1D0710000403E4E910E485
S214003560E9A3089ADA06FA069AAE319A1038B0B489
S214003570B2AFA101B3B51636A6A403C710E4E99A04
S2140035801D0710000403E4E910E4E9A3019ADA0633
S214003590A1029E81EDB4B2AFA102B51636A6A40371
S2140035A0C7A1019E81EDB4AF100004B303E4E91097
S2140035B0E4E9A3089ADA06B2AF8E81ED51BD041095
S2140035C02800C5AF8E82ED4D00AD06519E82EDBD42
S2140035D01FF0805D019E8CED8C8015310392118E5C
S2140035E0DBE84D158D02A114A0053188609E82EDA2
S2140035F0AF8ECAE84D088D04A10751AF4D029D035A
S214003600A100AFBDF5A101AFB3312388738E83ED62
S2140036104D00BD13A1009E86EDA1019E88ED8E850E
S214003620ED4D00BD6EFA068E88ED51BD388E86EDE6
S214003630419E86ED4885ED8D5AA108D7A1029E8849
S214003640EDA1009E86ED9AF1354D00BD46100000B6
S214003650C5A114A3179A67091010009A9807A1032A
S2140036609E88EDFA2E8E88ED4D02BD278E86ED41A2
S2140036709E86ED9AF135708E86ED61488D15FACDF1
S214003680A1009E86ED9E88ED8E83ED4D00AD041064
S2140036900200C531238804A101FA02A1009E83ED31
S2140036A0B2AF8ED3E84D088D04A10751AF4D029DF1
S2140036B003A100AFBDF5A101AFB3311388738E84AB
S2140036C0ED4D00BD13A1009E87EDA1019E89ED8EF4
S2140036D085ED4D00BD6EFA068E89ED51BD388E879C
S2140036E0ED419E87ED4885ED8D5AA109D7A1029E32
S2140036F089EDA1009E87ED9AA2364D00BD461001C9
S21400370000C5A118A31C9A67091010009A9807A173
S214003710039E89EDFA2E8E89ED4D02BD278E87ED2C
S214003720419E87ED9AA236708E87ED61488D15FA18
S214003730CDA1009E87ED9E89ED8E84ED4D00AD04F3
S214003740100300C531138804A101FA02A1009E846B
S214003750EDB2AF10B85DB5169AA5A403C7B4AFB561
S2140037608E6EFB4D00AD0616539EA403C702BEE93F
S214003770EA66009D040A8EFA07EA9A008D020B8E0E
S21400378002C0E9EA66009D041A8EFA07EA9A008DDE
S214003790021B8E02C4E9EA9A008D042A8EFA07EA12
S2140037A066009D022B8E8E7EED4D00AD618E6EFB0B
S2140037B04D00BD5A311385041A8EFA021B8E314312
S2140037C083044A8CFA024B8C313383043A8CFA0217
S2140037D03B8C310385040A8EFA020B8E31137D046E
S2140037E01A86FA021B86310380040A89FA020B89BC
S2140037F0313380043A89FA023B89312380042A89CE
S214003800FA022B8931437E044A87FA024B87B4AF0B
S214003810B58E6EFB4D00AD039B9B3831039712A10E
S21400382003D78C850931039705A10ED7FA03A10F9C
S214003830D731339512A104D7BC830931339505A13E
S2140038400CD7FA03A10DD73143830731439503A163
S2140038500AD73113850731139703A10BD7CC7E0700
S21400386031439003A105D78C830931039512A10635
S214003870D7FA0D31039509A107D716149EA403C7DE
S21400388016C0E831B7039AC435310383149A083654
S21400389016C2E831B70B9AB936FA0616969EA403F6
S2140038A0C7B4AFBC8107CC7E043103830410290063
S2140038B0C5AF10ECE9B39A540A4D00AD0F10ECE911
S2140038C0123C00D54D00BD04102800C5B2AFB51699
S2140038D0F99EA403C7B4AFA1019E6EFB10ECE9DF0E
S2140038E0A1009E82EDAF1000089A98071000049A77
S2140038F09807A1019E8AEDAF4D05BD07A101D7101F
S214003900ECE9D3AFB3B5D4168EEDA30485978684C1
S2140039108BFA108EED03F2E910040003F4E99E8D95
S214003920EDB4B2AFB516FF9CA403C710F2E99ABB7C
S21400393012B4AFA101B3B59E8DED10100003EEE9F1
S21400394010EEE9A3029ADA06A101169AA4A402C709
S214003950B4B2AF10EEE9B59A1D0716FF9CA403C7D4
S21400396010F2E99ABB12A1009E8DEDA102169AA450
S214003970A402C7B4AFA100B3B59E93ED14C15D1603
S21400398098FEA304859786848BFA14C15D16A0FE64
S214003990A304859786848BFA10C15D9A0439B4B265
S2140039A0AFB58E9AE99E92EDA1100892ED169AA4F4
S2140039B0A402C716C0E831A704A101FA02A1009E1E
S2140039C094EDB4AFB3B58E93ED4D00AD13A1009E4C
S2140039D093ED1495ED16A4FEA304859786848BFAC2
S2140039E0B4B2AF109CFEB3B514040012FF009AF4F4
S2140039F057B4B2AFA1019E94ED1010009B9807A19A
S214003A00009E94EDAFA1001607EA97A1038697A142
S214003A10011602EA97AF10783AB3031CEC9A4A3FB5
S214003A208EADE87241AD136270A100805DFFBD05EA
S214003A3042629EADE8A1009A322EB2AF8E9FED4D47
S214003A4000BD039A563F169FED7192AF169FED711B
S214003A5093874D00BD039A4A3FAF8E9FED4D00BD44
S214003A60039A563F169FED7182AF169FED718387BE
S214003A704D00BD039A4A3FAF8E9FED4D00BD148E9C
S214003A806EFB4D00BD0D8EA0ED4D00AD069AF40701
S214003A909AAF0EAFB3B5D4A2006168AD1C6370A137
S214003AA000907D80DA01808D106376A70096856190
S214003AB002C68490D66168BDF562B4B2AFA1009E1E
S214003AC0C5ED9EC6EDA1F19E0EEEA1269E0FEEAFB1
S214003AD0A103B59EC5EDA10016708FA403C7B4AFB1
S214003AE0B58EC6ED4D00BD0DA1019EC5ED16708FBD
S214003AF0A403C7FA12A1039EC5EDA10016708FA4F9
S214003B0003C7A1009EC6EDB4AFC2B56168AD306311
S214003B10D68770AE016168AD26A10216708FA40329
S214003B20C7C2D6AE029E53EEAE0270AE03D4877006
S214003B30AE01D210C7ED9AC0571000019A9807B48C
S214003B40AFB54D00BD288EC6ED4D00BD0DA1019E42
S214003B50C5ED16708FA403C7FA2EA1039EC5EDA16E
S214003B600016708FA403C7A1009EC6EDFA1A51BDB9
S214003B7017A10116B4ED9716BCE831A607A100718F
S214003B80A29A322E101CEAD3B4AFB516ACA3A40387
S214003B90C7B4AF1000019B9807AFB58EC5ED51AD09
S214003BA007A1019EC6EDFA15A1039EC5EDA102165A
S214003BB0708FA403C7A10016708FA403C7B4AFB359
S214003BC0B58EC5ED4D03AD04102900C5101CEA9A4C
S214003BD0540A4D00AD3B101CEA12F401D54D00AD61
S214003BE030101CEADFA10016B4ED978EC6ED4D002E
S214003BF0BD0DA1019EC5ED16708FA403C7FA12A1D4
S214003C00039EC5EDA10016708FA403C7A1009EC633
S214003C10EDB4B2AFA100B3B59E54EE9E55EE14CCF3
S214003C205D1622EAA304859786848BFA14CC5D166B
S214003C3026EAA304859786848BFAB4B2AFAFB3B5F1
S214003C408E24EA740222EAD26470A100169793A426
S214003C5003C7B4B2AF8E56EEA0103188CA3AEAD681
S214003C60874D03BD078E57EE4D00AD068E59EE51BB
S214003C70BD03A101AFA100AFB516EEB7A401C7B44E
S214003C80AFB516F7B9A401C7B4AFB5163FBAA401CD
S214003C90C7B4AFB51677BAA401C7B4AFB516B8BAED
S214003CA0A401C7B4AFB516F8BDA401C7B4AFB51626
S214003CB032BEA401C7B4AF1088EAB3125F00D5B213
S214003CC0AF108AEAB3124700D5B2AF100200B3B500
S214003CD0128CEA16FAA1A403C7028CEAD6AE0151EA
S214003CE0BD04A101FA02A1009E5CEEA1019E5EEE5B
S214003CF01088EAD3B4B2AF100100B3B5128CEA163E
S214003D00FAA1A403C7028CEAD6879E5DEEA1019EA7
S214003D105FEE108AEAD3B4B2AF100200038EEA1048
S214003D205AEE038CEAAFB51618A7A403C7B4AFA122
S214003D302AB5E1A12BE1A1021684A2A403C7B4AF61
S214003D40A100B3B59E64EE9E65EE1060EE1404000E
S214003D501200009AF457B4B2AFB516E5A6A403C78E
S214003D60B4AFB516F5A6A403C7B4AFA1009E67EE20
S214003D709E68EE9E69EE10D0070398EA10000003D6
S214003D8094EA0396EA9E66EE039AEAAFB51685BEF7
S214003D90A401C7B4AFC4D68770AE01D41673EEA321
S214003DA00B859786848BFAA1019E6CEE8E8EEE4D67
S214003DB0FFAD04419E8EEEAFB38E71EE7210010021
S214003DC0C9606878E9708E78E96148AD09609E78C8
S214003DD0E9A1049A322EB2AFC4D68770AE01D416CB
S214003DE07EEEA302859786848BFAA1019E6DEE8EE9
S214003DF091EE4DFFAD04419E91EEAFB38E80EE4D39
S214003E0000AD04519E80EE8E81EE4D00AD04519EB5
S214003E1081EE8E82EE4D00AD04519E82EE8E83EED4
S214003E204D00AD04519E83EEA2001684EE100100F4
S214003E30C960588CEEAD12875197BD0D100100C9B0
S214003E40607DFF588CEE9E8CEE4262864D088DDDBE
S214003E50B2AFB59AFB3D16C3E831D7158E80EE4D4E
S214003E6000BD16A1019E6AEEA1029E80EEA100FA98
S214003E7002A1051624A1A403C78E6BEEB4AFA10061
S214003E809E6BEE9E6DEEA1099E81EEA1019E6EEEEA
S214003E90A1009E6FEEAFB516F591A402C7B4AF8E23
S214003EA081EE4D00BD078E6EEE4D00BD0E8E83EE8C
S214003EB04D00BD0A8E6FEE4D00AD03A101AFA1000F
S214003EC0AFA101B51624A1A403C7A1009E6AEE9E69
S214003ED06EEE9E6FEEB4AFB5163E95A402C7B4AFB5
S214003EE0B516BF95A402C7B4AFB5167296A402C79E
S214003EF0B4AFB3708E70EE61586148BD0D60A2011C
S214003F007DFF5870EE9E70EEFA02A20062B2AF4DD0
S214003F1002BD11A1019E6BEE8E8DEE4DFFAD2041D0
S214003F209E8DEEAF4D06BD061004009B98074D090A
S214003F30BD088E80EE519E80EEAFA1009E6AEEAF69
S214003F40AFB516AD96A402C7B4AFB516AD96A4022B
S214003F50C7A12CD9B4AFA101B51624A1A403C7A14B
S214003F602CE1A1009BD23EA1009E8DEE9E8EEE9E81
S214003F708FEE9E90EE9E91EE9E92EEAF8E6AEE4D86
S214003F8000AD04102800C5AF8E6AEE4D00BD078E4A
S214003F9070EE4D00AD04102900C5AFAFB5A0005DB2
S214003FA007616A30616BD6607DFF5D1F70A100D42B
S214003FB0C6213027302721302730272130273027C9
S214003FC02130273027213027302730616C30B4AFBE
S214003FD0B3B521302730272130273027213027302E
S214003FE02721302730272130273027213027302738
S214003FF0D670A100120000B3B1C660A0009AAE024F
S214004000993AC2993C9AAF0EA10A165CABA402C7B5
S2140040109AAF0E893A74C275D6B7B5B1A1FFB18909
S2140040203CD2893AE260E27260A0009AC8029AAE78
S21400403002993AE2993CC2B4B2AFB3B1891CD687B2
S2140040407310000072B3B1A0FFB170B1AE0272AED1
S21400405003738770AE01E260E27260A0009AC80245
S214004060B3B1B1A1FFB1AE0272AE0373AE0170621E
S214004070E270A100E29AC802B3B1AE0370A1009A42
S214004080AE029AAE029AAE02B6B6AFB51633A9A481
S21400409001C7B4AFB5165EA9A401C7B4AFB5169EE6
S2140040A0A9A401C7B4AFB516B5ACA401C7B4AFB5E3
S2140040B01604AEA401C7B4AFB51628AEA401C7B4A3
S2140040C0AFA1031626EB97AFA1029BC340B51659C6
S2140040D0AEA401C7B4AFB51601AFA401C7B4AFA173
S2140040E00016F0EA719427AFB516A4AFA401C7B4C2
S2140040F0AFB58EF2EA419EF2EA10060003E4EA103B
S214004100DEEAD3A1011628EB978EF0EA5DFC9EF05E
S214004110EAA101162E8CA403C7B4AF8E28EB51ADCE
S21400412003A101AFA100AF8E27EB4D02BD03A10195
S214004130AFA100AFB516D4AFA401C7B4AFA10316A4
S2140041402AEB97AF8E2DEB5D9F9E2DEBA1029B3F3A
S21400415041B302E4EAD210DEEAD5708EF0EA5D03DF
S21400416051AD05604D00AD04A101FA02A100B2AF49
S214004170A1031627EB97AFB51607B0A401C7B4AFD7
S2140041808E26EB4D03BD03A101AFA100AF8E26EB3B
S2140041904D02BD03A101AFA100AFB51624B0A40126
S2140041A0C7B4AF8EA9E841AD089EA9E8A1009A322F
S2140041B02EAFB5167BB0A401C7B4AFB516AAB1A48E
S2140041C001C7B4AFA101162AEB97A11ED9AF8E2A5C
S2140041D0EB4D03BD03A101AFA100AF8E2AEB4D024C
S2140041E0BD03A101AFA100AFB516F5B3A401C7B4D6
S2140041F0AFB51611B4A401C7B4AFB5162BB4A4015D
S214004200C7B4AF10E0EAB3120400D516F0EA31974F
S214004210084D00AD04A101FA02A100B2AFB5165BCD
S214004220B4A401C7B4AF162DEB71D2AF8E2BEB51F1
S214004230BD151000000310EB030EEB0304EB0302A6
S214004240EB030CEB030AEB162DEB71E2AFB5160091
S214004250B5A401C7B4AFB51646B5A401C7B4AFB58B
S21400426016C0B5A401C7B4AF8E26EB51BD04102905
S21400427000C5AF162CEB875D017D01AFB5167BB68A
S214004280A401C7B4AFB57016C3E83187221637E964
S21400429031B71C8E9AED4D00BD30604D00BD1EA19D
S2140042A0019E9BED8E9CED4D00BD17A105FA158E67
S2140042B09BED4D00AD148E9AED4D00BD0DA1009EF8
S2140042C09BEDA106169AA4A402C7B4AFB516A486A1
S2140042D0A403C7B4AFA129E551AD078EA0EE4D00EB
S2140042E0AD04102900C5AFB5165287A403C7B4AFF6
S2140042F0B516B097A403C74D00A100AD05710483A1
S2140043000127B4AFA101B5169297A403C70230E9FE
S21400431016C397A403C7F0835D0116C997A403C705
S21400432016A796A403C7B4AFA1009B0643008E9AB7
S214004330EE4D00AD0C00000000009A3B5BA100FAB9
S21400434002A1019E9AEEAFA105B5162E8CA403C756
S214004350A102E18E9AED4D00BD0DA1009E9BEDA140
S21400436006169AA4A402C7B4AFB5162088A403C73D
S214004370B4AFA101B516A197A403C7B4AFA1009B23
S2140043807443A100B59B1A43A12FD7AFA130D7AF76
S214004390A131D7AFA132D7AFA133D7A134D7AF1051
S2140043A02500E7AF102600E7AFA135D7102700E7B6
S2140043B04D00BD03A101AFA100AFA136D710280064
S2140043C0E74D00BD03A101AFA100AFA137D710296B
S2140043D000E74D00BD03A101AFA100AF8EA1EE4DD9
S2140043E000AD089A7427A1009EA1EE102500C5AF67
S2140043F08EA1EE4D00AD089A7427A1009EA1EE1086
S2140044002600C5AF102500E7A1019EA1EE9BB527AB
S2140044101036EBB3123200D5B2AF1036EBD3AF9AEC
S2140044207910A100D7A12DD7A12ED79AAB069A74E2
S21400443027A1009EA1EEA12ED9AFB51615B5A402F0
S214004440C7B4AFB5167EB5A402C7B4AF101F00E759
S214004450AFB516ACB5A402C7B4AF103AEBB312179B
S21400446000D54D00BD078EA8EE4D03BD04A101FA90
S21400447002A100B2AF1038EBB312F401D54D00BD67
S214004480078EA3EE4D00AD04A101FA02A100B2AF63
S214004490101E00E7AFB516E7B5A402C7B4AF1038D4
S2140044A0EBD3AF1038EBB3121D00D5B2AFB5163C48
S2140044B0B6A402C7B4AF70A17F1610EE978ECAEDF1
S2140044C09E11EE609E12EE1003000320EAAF70A16C
S2140044D04008CAED9E10EEA1000320EAAF9B9A3B6F
S2140044E0B51689B6A402C7B4AF023CEB6168AD0747
S2140044F08E3DEBD6AE01AFA1C0AFA1019EA6EEAF3A
S214004500B5162685A400C7B4AFB5168C9BA400C705
S214004510B4AFB38EAAEE7216C45FAA4D80AD084D36
S21400452081AD044D82BD1B8E3DEDA00A3188A20AE6
S21400453031826168BD111000000340EB103EEBD3E2
S214004540B2AF102C01FAF28E3DEDA00A3188A20A15
S214004550318290FAE4B30240EBD2103EEBD5B2AF14
S214004560A105E551BD04102900C5AFB5160B98A4EA
S21400457001C7B4AFB3024AEBD21048EBD5B2AFB323
S2140045808EB9EEA20A70A1003182A100034AEB6147
S21400459068AD078E4BEB90034AEB1048EBD3B2AFF7
S2140045A0100000B3B1A00AB18EBBEE318812000035
S2140045B0317F0192CD034AEB6168AD078E4BEB90DD
S2140045C0034AEB1048EBD3B2AFB3B516A398A401D9
S2140045D0C774024AEBD21048EBD570644D00BD0597
S2140045E0604D00AD04A101FA02A100B4B2AFA10172
S2140045F0B5165998A401C78EEDEE0D029EEDEEB4E9
S214004600AFB5164DA8A401C7B4AF104CEBB3120A51
S21400461000D5B2AF9BB30EB516ABA8A401C7B4AF16
S214004620B516D7BAA402C7B4AFB5163DA7A403C73C
S2140046304D00BD0F16AEBAA402C731239B0DA102D2
S214004640D7FA08A100164BA7A403C7B4AFB516F552
S214004650BAA402C7B4AFB51615BBA402C7B4AF312F
S214004660239B0A8EF4EE51AD04102900C5AFB3B5F6
S21400467016C3E88EF2EE31970C4D00BD421676BAA0
S214004680A402C7FA3A51BD37A122E1A00060740225
S21400469022EAD26470169793A403C7A1009E50EB3B
S2140046A01651EB97869786979EF0EE9EF1EE105485
S2140046B0EBDF1058EBDF1056EBDFA1009EF2EE1694
S2140046C0DCB9A402C7B4B2AFB51632BBA402C7B4F5
S2140046D0AFB3B5A06460740222EAD26470A100167B
S2140046E09793A403C7A1019E50EBA1001651EB9728
S2140046F0869786971056EBDFB4B2AFB5167CBBA490
S21400470002C7B4AFB516B6BBA402C7B4AFB3B5A064
S2140047100060740222EAD26470169793A403C7A1BD
S214004720009E50EB1651EB97869786979EF0EE9E6E
S214004730F1EE1054EBDFB4B2AFB5162BBCA402C733
S214004740B4AF8E24EA4D00AD03A101AFA100AF8E39
S21400475024EA4D00BD03A101AFA100AFA1019EF167
S214004760EEA1009EF0EEAFA1019EF0EEA1009EF13C
S214004770EEAFA1009EF5EE9EF6EE9EF7EE9EF8EEEC
S214004780AFA10DD9AFA10DB3E1105AEBDFA104A381
S214004790009A783CA105A3009A783CA106A3009A4B
S2140047A0783CA1009EF5EE9EF6EE9EF7EE9EF8EEA5
S2140047B0B2AFB516EF98A403C7B4AFB516C0B6A48B
S2140047C000C7B4AFA1009EA2ED16FFEE978697161F
S2140047D002EF97A123D9A124D9A10ED9A1009E0B3F
S2140047E0EFA1149E0FEF9E10EFA1009E11EFAFA158
S2140047F023D89B3FE1A124E1A10EE1AF16C0E8312A
S214004800A60C8EFFEE51AD068E00EF51BD041029AA
S21400481000C5AFB516FBB6A400C7B4AFB51679BAD7
S214004820A400C7B4AFB3026CEBD21064EBD5B2AF42
S214004830B516DCBAA400C7B4AFB3026AEBD21064F4
S214004840EBD551BD04A101FA02A100B2AFB51677AF
S214004850BBA400C7B4AF1064EBB3B59ADE0AD6A209
S21400486000026AEBEA0D008D05100C00FA03CAFD83
S214004870FF30611E60613F9D0DA201169A8DA40354
S214004880C7A1019E0DEF62B4B2AFB51698BBA400E7
S214004890C7B4AFA1011606EF97A1009EA2EDAFA187
S2140048A0011607EF9B9848B516BFBCA400C7B4AF67
S2140048B0B51665ABA402C7B4AFB516FFABA402C766
S2140048C0B4AFB516D2ACA402C7B4AFB516ECACA460
S2140048D002C7B4AFAF8E8DFB4D00BD04102900C5D6
S2140048E0AFA110D9A111D98E8CED9E16EFA1009E16
S2140048F01AEF9E1CEF9E1DEF1076EBDFA1009E15B3
S214004900EFAFA1101B99E1A111E1AFB51624ADA43C
S21400491002C7B4AF16C0E831B71116C4E831970B1A
S214004920A1019E18EF9E19EFA102D7AFA000313368
S2140049308302A00331038504606D0C7060AFA00095
S21400494031338302A00331038504606D0C70604828
S2140049501EEFBD03A100AFA101AFB3B5A300A40035
S2140049601660EEA102611C728770A100C960610327
S2140049704464864D038DEC639E63EEB4B2AF10784C
S214004980EBD3AFB5162C99A403C7B4AFB5166D9983
S214004990A403C7B4AFB5169599A403C7B4AFB516AC
S2140049A0A099A403C7B4AFB516DA99A403C7B4AFE9
S2140049B0B516079AA403C7B4AF8E64EE4D00BD03C8
S2140049C0A101AFA100AF8E1FEF4D00AD0A8E21EF03
S2140049D04D00BD03A101AFA100AF8E20EF4D00AD8D
S2140049E00A8E21EF4D00BD03A101AFA100AFA101CA
S2140049F09E25EF1078EBDFAF8E8EFB4D00BD0410CA
S214004A002900C5AF8E8EFB4D00BD04102800C5AF33
S214004A10A1009E65EE8E25EF4D00BD0AA112E54D64
S214004A2000BD03A112D9AFA112E1A1009E65EEAFB1
S214004A30A1009E65EE16C3E831B711A10131F60557
S214004A409E20EFFA039E1FEFA113D9AF9E25EFAF6E
S214004A5016C3E831B711A1019E20EF8E23EF4DC992
S214004A60BD05A1019E21EFAF16C3E831B711A10124
S214004A709E20EF8E23EF4DC9BD05A1019E21EFAF0D
S214004A808EC3E85D884D88BD0AA1019E24EFA10073
S214004A909E8EFBAF16C3E831B70AA1019E24EFA194
S214004AA0009E8EFBAF16C3E831B711A1019E1FEF23
S214004AB08E23EF4DC6BD05A1019E21EFAFB5165161
S214004AC09AA403C7B4AFB516649AA403C7B4AFA13B
S214004AD0019E8EFBAFA0008E24EF4D00BD02A0010C
S214004AE060AF8E24EFAFA112D9A1009E25EFF08310
S214004AF05D019E22EF9BCF4A100F00E7AF1010001B
S214004B00E7AFA10071449B277D01AFA10071449BD4
S214004B1027AFB516E8BCA402C7B4AFA1019E27EF25
S214004B20A10016B3ED97107CEBD3AFA1019E27EF43
S214004B30107CEBD3AFA1009E27EFA10116B3ED9733
S214004B4016BBE8318607A10071829A322E107CEBE4
S214004B50D3AFB51647BDA402C7B4AFB5167CBDA487
S214004B6002C7B4AF8C8109AC8503A101AFA100AF29
S214004B70A100AFB516B1BDA402C7B4AFB516D6BD79
S214004B80A402C7B4AFA100712485277D01AFA100A0
S214004B9071248527AF8E29EF51A1009E28EFBD0511
S214004BA0A1159B4109107EEBD3AFB5160FBEA4022C
S214004BB0C7B4AFA1019E28EF107EEBD3100000E72C
S214004BC0AF107EEBDFAF8E26EF4D00BD03A101AF29
S214004BD0A100AF100200E7708E26EF4D00AD076013
S214004BE051BD03A101AFA100AF8E26EF519E26EF67
S214004BF0AF101000E7AFF0815D017D01AFB516364E
S214004C00BEA402C7B4AFA115E570A1009E29EF604F
S214004C104D02BD09107EEBD3A1159A4D09AFB5160E
S214004C208EBEA402C7B4AFB516BCBEA402C7B4AF4E
S214004C30A1019E29EFAF1080EBD31082EBD3AF100B
S214004C4082EBD3AF1080EBB3124B00D5B2AFB516E4
S214004C50EABEA402C7B4AFB51651BFA402C7B4AF2C
S214004C60A1174B9BE1AFA114E1A115E1A116E1A1AB
S214004C70019E27EFA1009E28EF9E29EF9E26EFAF0C
S214004C80B516CC82A402C7B4AFB5169788A402C7DF
S214004C90B4AFB516C589A402C7B4AFB516DB89A4F0
S214004CA002C7B4AF162FEF3186131686EB31A60D6A
S214004CB08E2FEF5DFCBD061630EF318704102900FD
S214004CC0C5AFA109D9A10AD9A10BD9A10CD9A100B8
S214004CD09E3AEFAFA109E1A10AE1A10BE1A10CE127
S214004CE0AF1096EB1686EB71D3D3AFB5163F8AA4FA
S214004CF002C7B4AFB516588BA402C7B4AFB516B585
S214004D008CA402C7B4AF1094EBB3120000D551BD0B
S214004D1004A101FA02A100B2AFB38E36EF483DED12
S214004D20BD0502A6EBFA0E8E3DED9E36EFA00A31CB
S214004D3088A20A318203A6EBD21096EBD5B2AF8ECC
S214004D4032EF4D00BD08A1011686EB71A3AFA1009E
S214004D50AF1686EB7192AFB516268DA402C7B4AF18
S214004D6016C2E831F708A1007104830127AFA1013C
S214004D70AFB5167FBEA401C71688EB7183B4AF1615
S214004D80C2E831F7103103830C1686EB319703A186
S214004D9001AFA100AFA100AFB51646BEA401C71073
S214004DA02000E7B4AFB516918DA402C7B4AF1000CB
S214004DB000030EEA1609EA978697163DEF71A2AF32
S214004DC0163DEF71A3AFA103163DEF71921608EAE8
S214004DD097AF163DEF7183AFA106B51608EA97A107
S214004DE02BD7A10016DC86A403C7B4AFA100163DDE
S214004DF0EF71A427AF163DEF31A705F0835D01AF35
S214004E00A100AFA1031608EA9710B0EBD3AFA1013B
S214004E101602EA97A107E9A12BD7AF10B0EBD3AFE4
S214004E20B38E3EEF48E9E8BD0502B2EBFA1C8EE908
S214004E30E89E3EEF100000B1A00AB170B1A064B1C8
S214004E408E3EEF1200007063C1CD03B2EBD210B0FD
S214004E50EBD5B2AF10B0EBB3122C01D5B2AF10B099
S214004E60EBB3127017D5B2AF8E3DEF5DF99E3DEFF6
S214004E70AF163DEF318604102900C5AFA10FD9AF9C
S214004E80A10FE1AFB5162F9FA403C7B4AFB5165058
S214004E909FA403C7B4AF31038306A129D79BA34EB3
S214004EA0A100AFA10016ACED9786979E9EEDA101DE
S214004EB0AF3103831C8E07EA4D00BD151637E93166
S214004EC0860FA129D710B0EB163DEF7183D39BA3B5
S214004ED04EA100AFA1039BCD4D1637E9875D01AF0C
S214004EE0B5166D9FA403C7B4AF8E26EB4D03BD0366
S214004EF0A101AFA100AF8E26EB4D02BD03A101AF0D
S214004F00A100AF10B0EBB3B59A540A7410B0EB1210
S214004F100F00D570644D00AD09604D00AD04A101D1
S214004F20FA02A100B4B2AFA100B59BE44DA101B551
S214004F301608EA9710B0EBD3A1001602EA97A12A4A
S214004F40D79BE24DA100163DEF719427AFA101E972
S214004F50AF8E28EB51AD03A101AFA100AFB3A30004
S214004F60162DEB31A7108E23EB72100100C9605886
S214004F7078E9AD02A30163B2AFA106162CEB7193DC
S214004F80E9AF8E2BEB51AD03A101AFA100AF1637F1
S214004F90E931B706A1031608EA97AF8E07EA4D0077
S214004FA0AD03A101AFA100AFB516A39FA403C7B47C
S214004FB0AFB516DF9FA403C7B4AF162CEB71A3AF33
S214004FC0A100162DEB71A427AF8E2BEB4D03BD036E
S214004FD0A101AFA100AF8E2BEB4D02BD03A101AF27
S214004FE0A100AF8E0AEA41AD039E0AEAAFB51611DC
S214004FF0A0A403C7B4AFA104162CEB71A31608EA4D
S21400500097A101E9AF10B0EBB3126400D5B2AFA11F
S214005010011608EA97162CEB718371A2AFA1001651
S2140050203DEF71A4277D01AFA1019BCD4DA1009E50
S21400503051EF9E55EF8E52EF5DF89E52EFAFA126D0
S214005040D9A125D9AFA126E1A125E1AFB5163E9E8F
S214005050A400C7B4AF1652EF7182AFB5165D9EA41A
S21400506000C7B4AF8E51EF51BD04A111FA02A1B230
S2140050709B2652A1019E55EFA1009B26528E26EB41
S2140050804D03BD03A101AFA100AFB38E51EF4D0399
S214005090BD3A8E54EF48E8E8BD0502BAEBFA1D8E1D
S2140050A0E8E89E54EF100000B1A00AB170B110609D
S2140050B0EAB18E54EF1200007063C1CD03BAEBD292
S2140050C010B4EBD54D00AD04A101FA02A100B2AFB9
S2140050D0A0008E26EB4D02BD02A00160AFB516847F
S2140050E09EA400C7B4AFB516099FA400C7B4AFA16D
S2140050F000162DEB719427AFB3B5A41B02C2EBD2FA
S21400510002C0EB9A2402605D01162DEB70A10071BF
S214005110A427306150607D01B4B2AFB516229FA4BB
S21400512000C7B4AFA0008E2AEB4D02BD06A1019EBB
S214005130F8E97060AFA0008E2AEB4D02BD07A10112
S21400514016F9E9977060AF8E2AEB4D03BD03A101F7
S214005150AFA100AF8E2AEB4D02BD03A101AFA100A7
S214005160AFB516539FA400C7B4AFA100162DEB71C0
S214005170A427AFB51646A0A400C7B4AFB51673A053
S214005180A400C7B4AFB516BDA0A400C7B4AFB5168B
S2140051907CA1A400C7B4AFB5169AA1A400C7B4AF4B
S2140051A0A101E9AF8E28EB4D03BD03A101AFA1001D
S2140051B0AF8E28EB4D02BD03A101AFA100AFB5161F
S2140051C03AA2A400C7B4AFB5168BA2A400C7B4AF6A
S2140051D08E2BEB4D03BD03A101AFA100AFA0008E47
S2140051E02BEB4D02BD07A10116FAE9977060AFA13F
S2140051F006162CEB7193E9AFA1A29B2652B516A119
S214005200A2A400C7B4AFA10016C3E871C4277D01ED
S214005210AFB516BFA2A400C7B4AF8E51EF51BD0400
S214005220A118FA02A1B7160CEA97AF162DEB7192E9
S214005230AFB516F0A2A400C7B4AFA1199B2652B50D
S214005240161DA6A400C7B4AFA1039ABB2E4D00BD81
S2140052501EA1049ABB2E4D00BD15A1039A5A2E4DD1
S21400526000AD0CA1049A5A2E4D00AD03A101AFA1CA
S21400527000AF8E28EB51AD03A101AFA100AFB5166C
S2140052805DA6A400C7B4AFA1A19B2652B516B9A6C9
S214005290A400C7B4AFA103E9AFB51623A7A400C7FF
S2140052A0B4AFB51686A9A400C7B4AFB516B3A9A403
S2140052B000C7B4AF8E23EB4D04AD03A101AFA10030
S2140052C0AFB51614AAA400C7B4AFB516ABABA4000E
S2140052D0C7B4AFB51648ACA400C7B4AFB51664AC37
S2140052E0A400C7B4AFB51677ACA400C7B4AFB51664
S2140052F0D09DA400C78E51EF4D00BD0EA10016072D
S214005300EA9716FBE99710B4EBDF8C8307A128D742
S214005310A101FA02A100B4AFB516C0ACA400C7B490
S214005320AFB5163FADA400C7B4AFB5167CADA400AC
S214005330C7B4AFB51606AFA400C7B4AFB5161CAF5A
S214005340A400C7B4AFB51635B0A400C7B4AFB51641
S21400535065B3A400C7B4AFB516DEB4A400C7B4AF37
S2140053608E03EA4D048D03A101AFA100AF8C830626
S214005370A10016FBE9971652EF7192AF8E51EF51CE
S214005380BD04A112FA02A1B39B2652B5162FB5A4EE
S21400539000C7B4AF8E51EF51BD03A101AFA100AF5E
S2140053A0B54D00AD0D2A988E9DED4D00BD06A109A8
S2140053B0FA042B98A10A169AA4A402C7B4AFB5168D
S2140053C05CBFA402C7B4AFB516A5BFA402C7B4AFEE
S2140053D08E56EF51AD118E56EF4D03AD0A8E58EF37
S2140053E04D00BD03A101AFA100AF8E58EF4D00AD3B
S2140053F004519E58EF8E56EF4808EAAD03A101AF60
S214005400A100AFA1009E58EFA1039E56EFA1009EFB
S21400541057EF9E9DEDA12D2BA4D9AF101100E7AF3D
S214005420101200E7AFA10071549B277D01AFA100C9
S21400543071549B27AFB516C9B7A402C7B4AFA10174
S2140054409E5BEF8E5AEF4D029D04419E5AEFA100DF
S21400545016B2ED97100EECD3AFA1019E5BEF100EC7
S214005460ECD3AFA1009E5BEFA10116B2ED9716BB81
S214005470E8319607A10071929A322E100EECD3AF47
S214005480B51628B8A402C7B4AFB5165DB8A402C74F
S214005490B4AFB51692B8A402C7B4AF8E5CEF4D0099
S2140054A0BD09F0825D0CBD03A101AFA100AFB5162A
S2140054B0C7B8A402C7B4AFB516ECB8A402C7B4AF59
S2140054C0A100713482277D01AFA10071348227AF1D
S2140054D08E5EEF51A1009E5DEFBD05A1199B4109AF
S2140054E01010ECD3AFB51625B9A402C7B4AFA1010E
S2140054F09E5DEF1010ECD3A1009E5CEFA11BE110A7
S2140055000100E7AF1010ECDFAF8E59EF4D00BD0382
S214005510A101AFA100AF100300E7708E59EF4D0058
S214005520AD076051BD03A101AFA100AF8E59EF5189
S2140055309E59EFAF101200E7AFA100712482277DBD
S21400554001AFA0008EBEED4D00AD0BAC8223A100D6
S21400555016BEED97FA1B8EBDED4D00BD0E312382B3
S21400556010A100710481012770FA0631238202A07F
S2140055700160AFA119E570A1009E5EEF604D02BD0F
S214005580091010ECD3A1199A4D09AFB5164CB9A461
S21400559002C7B4AFA1019E5EEFAF1012ECD3A1001C
S2140055A09E5CEFA11BE1AF1012ECB3124B00D5B21C
S2140055B0AFA100711488277D01AFA1007114882760
S2140055C0AFA1019E5CEFAF8E5AEF4D028D03A10195
S2140055D0AFA100AFA1009E5CEFAFB51662B9A40202
S2140055E0C7B4AFB516C4B9A402C7B4AFB516C3B630
S2140055F0A402C7A11CE1B4AFA11BE1A118E1A11947
S214005600E1A11AE1A1019E5BEFA1009E5CEF9E5D09
S214005610EF9E5EEF9E59EF100EECDF1010ECDF10E1
S21400562012ECDFA1009E61EF9E63EFA1149E62EF75
S214005630AFA1019E64EFA127D9AFA1019E64EFA19F
S21400564027E1AFB516A0A6A403C7B4AF10000003A9
S2140056501AEC9E67EF9E66EF9E65EF9E68EFAFB50D
S214005660169388A403C7B4AF161BEC31C6041029E2
S21400567000C5AF021AEC305DFD6D0130031AECAFC9
S214005680021AEC305DFB6D089B7B56021AEC305D0F
S214005690F76D049B7B56B516ED88A403C7B4AFB56B
S2140056A0160789A403C7B4AFB5164189A403C7B4C7
S2140056B0AF8E1AEC5D05AD03A101AFA100AFA0004F
S2140056C08E1AEC5D30BD0816C0E8319602A0016067
S2140056D0AF1018ECB312E703D5B2AFB5167389A4B2
S2140056E003C7B4AFB516BB89A403C7B4AF1016EC96
S2140056F0B3B5A40012C700D54D00AD098E66EF4DB8
S2140057000F9D02A40164B4B2AFB516ED89A403C719
S214005710B4AF1016ECB3B5A40012C700D54D00AD5B
S214005720098E66EF4D0FBD02A40164B4B2AFB51684
S2140057300D8AA403C7B4AFB516438AA403C7B4AF93
S214005740161AEC31C70F8E6AEF4D00BD0371F2AF2B
S214005750A1009E6AEFAF161AEC31C70F8E69EF4DA7
S21400576000BD0371E2AFA1009E69EFAFA11DE1A1EC
S214005770009E69EF9E6AEFAFA11DE54D00BD03A137
S2140057801DD9AFB516728AA403C7B4AFB5D4FA064E
S21400579084B3B686B7B2891CD68770AE01903097B0
S2140057A030BE01806168AD13B3B687B5B64FADE0C5
S2140057B07685A000611E303D00FA03100000B2AFEF
S2140057C0B3B5D4B5B2FA179A4B0402D687B3B697D8
S2140057D0B3B686B7B29A4B0402809A720402891C4A
S2140057E0D68770AE0190309730BE01806168BDD715
S2140057F0C4B2B2AFB3D6B5B2B7B4FA05B0B160951D
S21400580084C2926168BDF5C6B2AFB3B5B7B7B7028A
S21400581028ECB6B1891C8080D6A10012C0FFBE015C
S21400582097C2BE0360BE02A501100000B180B18918
S2140058301CD6AE0470AE051200009AFF029AC8028B
S214005840B3B170A401B1A00FB1891CD6AE0870AE7A
S214005850099AC8029A03029AAE027465349A030241
S214005860B3B1891CD6AE0670AE07D2AE0870AE09CC
S214005870E29AAE0230BE0660BE07C230BE0860BE08
S21400588009891CD68770AE012125302530212530A8
S214005890253021253025302125302530B6B1650D3F
S2140058A005754D158D83891C8080D68770AE0103E3
S2140058B01EECC20320ECA1019B165A100070B3B573
S2140058C0B7B7B1891C8080D6A10012C0FFBE019771
S2140058D0C2BE0360BE02A501100000B180B1891CE3
